:020000040800F2
:10000000D06B0120C5010008973F00082B2F000886
:10001000953F00081B0800082D460008000000005E
:10002000000000000000000000000000C9420008BD
:10003000C309000800000000B53F0008CB420008DB
:10004000DF010008DF010008DF010008DF01000810
:10005000DF010008DF010008DF010008DF01000800
:10006000DF010008DF010008DF010008DF010008F0
:10007000DF010008DF010008DF010008DF010008E0
:10008000DF010008DF010008DF010008DF010008D0
:10009000DF010008DF010008DF010008DF010008C0
:1000A000DF010008DF010008DF010008DF010008B0
:1000B000DF010008DF010008DF010008DF010008A0
:1000C000DF010008DF010008DF010008DF01000890
:1000D000DF010008DF010008DF010008DF01000880
:1000E000DF010008DF010008DF010008DF01000870
:1000F000DF010008DF010008DF010008DF01000860
:10010000DF010008DF010008DF010008DF0100084F
:10011000DF010008DF01000881430008DF0100085B
:10012000DF010008F5080008DF010008DF01000812
:10013000DF010008DF010008DF010008DF0100081F
:10014000DF010008DF010008DF010008DF0100080F
:10015000DF010008DF010008DF010008DF010008FF
:10016000DF010008DF010008DF010008DF010008EF
:10017000DF010008DF010008E908000800000000B6
:10018000DF010008DF010008DF010008DF010008CF
:10019000DF010008DF010008DF010008DF010008BF
:1001A000DF010008DF010008DF010008DFF810D0E0
:1001B00000F064FA0048004785620008AFF3008051
:1001C000D06B01200648804706480047FEE7FEE75F
:1001D000FEE7FEE7FEE7FEE7FEE7FEE7FEE7FEE7F7
:1001E00071430008AD0100082DE9F05F05460020CD
:1001F00092469B4688460646814640241BE0284698
:1002000041464746224600F0B9F953465A46C01ABD
:10021000914110D311461846224600F0A0F92D1A3C
:1002200067EB01084F4622460120002100F097F9B4
:1002300017EB00094E41201EA4F10104DFDC484603
:1002400031462A464346BDE8F09F40EA01039B073A
:1002500003D009E008C9121F08C0042AFAD203E03B
:1002600011F8013B00F8013B521EF9D27047D2B29F
:1002700001E000F8012B491EFBD270470022F6E78F
:1002800010B513460A4604461946FFF7F0FF20460C
:1002900010BD421C10F8011B0029FBD1801A7047C9
:1002A00030B505460020034600E05B1C934205D2B2
:1002B000EC5CC85C201A01D1002CF6D130BD2DE9D0
:1002C000FE4F804681EA0300C00F0C46009021F0EB
:1002D000004123F00045B8EB0200A94105D2404699
:1002E000214690461C460B46024623F00040104330
:1002F00047D0270DC7F30A00C3F30A510290401AF2
:10030000019040286BDAC3F3130040F4801B00987F
:10031000924620B10023D2EB030A63EB0B0B01984A
:100320005946C0F14002504600F019F906460D4604
:1003300050465946019A00F031F910EB080061412E
:10034000002487EA115284EAE7731A4340D0009AE6
:1003500062B3019A012A4FEA075215DC001B61EBD8
:1003600002014FF0004202EA0752CDE90042001CB0
:1003700041F5801132462B4600F031F903B0BDE85B
:10038000F08F40462146F9E7001B61EB0201001C9B
:1003900041F5801300185B412018A2F5001747EBC8
:1003A000030140EAD570B6196D4111E06D084FEABE
:1003B000360645EAC0754FEA0752001B61EB0201A1
:1003C000001C41F5801149084FEA300000195141E5
:1003D00032462B4603B0BDE8F04F00F0F1B800986C
:1003E000012240000023D0EB020263EBE07300988F
:1003F00021464FEAE074B8EB000061EB0401E9E745
:1004000083F000435BE781F0004158E72DE9FE4FA0
:1004100081EA030404F0004421F0004100944FF00D
:10042000000B23F0004350EA01045ED052EA0304BB
:100430005BD0C3F30A54C1F30A552C44A4F2F3343D
:100440000194A0FB0254C1F3130141F48011C3F3E2
:10045000130343F4801301FB024400FB034E840AA0
:10046000970A44EA815447EA8357A4FB0768029538
:100470008D0A05FB07854FEA932C04FB0C542705D6
:10048000029D4FEA065847EA1637B5EB08056EEBB2
:10049000070C870E920E47EA811742EA8312A7FBE8
:1004A0000201B6EB0B0164EB00042B0D43EA0C33A5
:1004B0005E1844EB1C50DA465146E7FB0201C5F3D7
:1004C00013044FEA0B3343EA14534FEA0432019CFE
:1004D00043EA0603A4F10C040294009CCDE900B4A5
:1004E00000F07DF803B0BDE8F08F00200146F9E789
:1004F0000EB5C10F80EAE0700844CA07002140F23F
:1005000033438DE80E000A460B4600F068F803B04E
:1005100000BD0EB540F2334102910021CDE900113A
:100520000A460B4600F05BF803B000BDC1F30A5267
:1005300010B5C1F3130140F2FF3341F480119A4228
:1005400001DA002010BD40F233439A42A2F2334256
:1005500003DC524200F012F810BD904010BD202A7A
:1005600004DB203A00FA02F1002070479140C2F10A
:10057000200320FA03F3194390407047202A04DB3C
:10058000203A21FA02F00021704721FA02F3D0400C
:10059000C2F120029140084319467047202A06DB29
:1005A000CB17203A41FA02F043EAE07306E041FA41
:1005B00002F3D040C2F1200291400843194670472F
:1005C00010B5141E73F1000408DA401C41F100015B
:1005D00092185B411A4301D120F0010010BD2DE9B2
:1005E000F04D92469B4611B1B1FA81F202E0B0FAA9
:1005F00080F220329046FFF7B2FF04460F4640EAF1
:100600000A0041EA0B0153465A46084313D01146EB
:1006100053EA010019D0C8F140025046FFF7AEFF7F
:1006200005460E46504659464246FFF798FF084396
:1006300005D0012004E020463946BDE8F08D0020B9
:10064000054346EAE0762C4337430A986305E40AFB
:10065000A0EB08000022FD0A44EA47540A3002D504
:1006600000200146E9E7010510196941DDE9084567
:1006700000196941BDE8F04DA2E70000064C074DA6
:1006800006E0E06840F0010394E807009847103462
:10069000AC42F6D3FFF78EFDF091000810920008EF
:1006A000464910B54A6822F440324A604A684368B5
:1006B0001A434A6001684A6822F480724A600168FD
:1006C0004A68036942EA03224A6001684A6822F0E4
:1006D00040724A6001684A6883681A434A60016848
:1006E0008A6822F400628A6001688A68C3681A43D3
:1006F0008A60816A6FF07062D14201688A6822F074
:1007000070628A6001688A680CD0836A1A438A60C2
:1007100001688A6822F040528A6001688A68C36A68
:100720001A4301E022F040528A6001688A6822F090
:1007300002028A6001688A68037E42EA43028A6094
:1007400090F82010002901684A680FD042F4006236
:100750004A6001684A6822F460424A6001684A6857
:10076000174C436A04EB43331A4301E022F400625E
:100770004A600168CA6A22F47002CA620168CA6AE1
:10078000838B104C04EB03531A43CA6201688A68D6
:1007900022F400728A6001688A6890F8303042EA78
:1007A00043228A6001688A6822F480628A60016854
:1007B0008A68406942EA8020886010BD00230140B9
:1007C00000E0FFFF0000F0FF2DE9F04107461C4666
:1007D00015460E462A2002F063FD380A02F096FD07
:1007E000F8B202F093FD280A02F090FDE8B202F0A0
:1007F0008DFD2B2002F054FD300A02F087FDF0B28F
:1008000002F084FD200A02F081FDE0B202F07EFDDC
:10081000BDE8F0412C2002F043BDFEE770B515465F
:100820000E46044643F2390200780023012106F007
:1008300021FB01462068814206D1C0B22A463146DA
:1008400004F0FEFF012800D0002070BD10B5806BC1
:10085000816B496D022902D0012180F8251000F03A
:100860003FFB10BD10B5846BA26AA06B0168CAB1D2
:100870000A68A36A02F40022DB0706D12AB1C9681C
:10088000E26A01EBC201002207E00A68120319D4F0
:100890000969E26A01EBC201012200F0FEFCA06AD4
:1008A000401E0EE00868000302D5606BC86009E0D6
:1008B0000868000306D4E26A606B00EB82000861FE
:1008C000206BA062A06A216B88420BD12068C168AE
:1008D00041F00101C16020680068800702D5012055
:1008E00084F8250010BD0000014800F001BB0000A5
:1008F000AC010020014801F0F3B90000EC01002038
:1009000001681823CAB2103AB2FBF3F2054B6FF339
:100910000901032A9B5CC36500D9091D816508464E
:10092000704700009C76000810B5014600208B69D6
:100930008A6A4FF0C07453B1B3F5005F15D072B13D
:10094000012A0CD0022A0AD0032A09D104E01AB1E4
:10095000012A06D0022A03D1C96AC90100D50120A3
:1009600010BDC96AA142FAD010BD002AF7D0012AF1
:10097000F2D0022AF3D0032AF3D010BD10B50468D8
:1009800063608368402B036803D099600068C2608D
:1009900010BD9A600068C16010BD30B5046825685C
:1009A00025F480252560046863608368402B036814
:1009B00003D099600068C26030BD9A600068C16071
:1009C00030BD704772B6FEE730B5B3F5804F05D045
:1009D0006FF0704140F82210002030BD8C690B6828
:1009E0008D6823434C688989240144EA0524234304
:1009F00043EA014150F82230014C23401943E9E712
:100A00000000F0CF30B50A6850F8223023F001031F
:100A100040F822308C68082C28D000234A68184DF2
:100A20002243CC681C430B6922431A434B691A4387
:100A3000CB691A430B6A1A434B6A1A438B6A1A43EF
:100A4000CB6A1A430B6B1A438B6913434A6B1A43E5
:100A5000CB6B13430A6850F82240AC431C4340F868
:100A600022404A6BB2F5801F02D007E04023D5E751
:100A7000096819B1016841F480110160002030BD9E
:100A80007FFF1F0070B5D1E9003443EA04138C687E
:100A90008D89240244EA054423430D8A114C00EB5E
:100AA000820204EB05552B430D7D660106EB0565BF
:100AB0002B438D692B43556805F040452B4353600C
:100AC0000268D2020BD54268098A22F4700204EB54
:100AD00001511143426822F470020A43426000202F
:100AE00070BD00000000F0FF78B50024009490F87D
:100AF0003C20012A19D0012280F83C200A680723F3
:100B00000568092A13D9EE680A3A02EB42029340BB
:100B10009E43EE600B788A680A3B03EB43039A40DE
:100B20000368DD682A43DA6010E0022078BD2E6990
:100B300002EB420293409E432E610B788A6803EBDE
:100B400043039A4003681D692A431A614A681F23B8
:100B5000072A13D205686E6B521E02EB8202934085
:100B60009E436E630A8893B20A79521E02EB820298
:100B700093400268556B2B43536327E005680D2AA9
:100B800012D22E6BD21F02EB820293409E432E6341
:100B90000B790A88DB1F92B203EB83039A40036848
:100BA0001D6B2A431A6311E0EE6A0D3A02EB8202D2
:100BB00093409E43EE620B790A880D3B92B203EBA1
:100BC00083039A400368DD6A2A43DA621B4B056897
:100BD000194A9D420AD10D68122D07D1556825F496
:100BE00000055560556845F48005556005689D42CF
:100BF0001DD1134D0B68AB4201D0112B17D1536897
:100C000023F480035360536843F40003536009687E
:100C1000A9420CD10B490C4A0968B1FBF2F101EB76
:100C20008101490000E0491E00910029FBD180F8B4
:100C30003C40002078BD000000230140002001401E
:100C4000120000101C00002040420F000068C06C21
:100C5000704770B504004FF0000503D0206C0026EB
:100C600010B107E0012070BD204600F01DF8666459
:100C700084F83C60206CC00610D4206C20F48850AE
:100C800040F0020020642046FFF70AFD6664206CF5
:100C900020F0020040F00100206400E0012584F80B
:100CA0003C60284670BD000070B586B00446142133
:100CB0006846FFF7E3FA1D491B4E256800231B4ACF
:100CC000143903241A48B54211D1156845F48075CA
:100CD0001560126802F4807205920A6842F00102FF
:100CE0000A60096801F001010591082113E0114E25
:100CF000B54216D1156845F400751560126802F406
:100D0000007205920A6842F001020A60096801F067
:100D1000010105918021CDE900140293694601F09B
:100D2000B5F906B070BD0000002001404438024013
:100D300000000240002101402DE9F0410446006816
:100D40000D4681684FF0000749050BD58068C00546
:100D500008D5206C40F02000206484F83C7001200D
:100D6000BDE8F08101F0B6FA064613E0681C11D028
:100D700025B101F0AFFA801BA8420BD920680068AA
:100D8000800707D4206C40F00400206484F83C7095
:100D90000320E5E7206800688007E7D521686FF049
:100DA00012000860206C40F40070206420688168A4
:100DB00011F0405F13D1217E89B9C16A11F4700F1F
:100DC00002D0806840050AD4206C20F48070206432
:100DD000206CC00403D4206C40F00100206400208B
:100DE000BEE7000018B50021009190F83C20012AD0
:100DF00007D0012280F83C2002689368DB0702D00C
:100E000011E0022018BD936843F0010393602E4A5D
:100E10002E4B1268B2FBF3F202EB420200E0521ECC
:100E20000092002AFBD102689368DB0742D0036C72
:100E300040F20164A34343F48073036453685B0589
:100E400005D5036C23F4005343F480530364036C0F
:100E5000DB0404D5436C23F00603436400E04164E3
:100E600080F83C101A496FF022031360496800684B
:100E7000CA06184906D0884224D1816811F0405F23
:100E800013D01FE08842F8D0134A904203D1D1F822
:100E90000423D206F1D0114A904213D1D1F80413A1
:100EA00001F01F011029E8D30CE0816841F0804176
:100EB000816007E0016C41F010010164416C41F078
:100EC00001014164002018BD1C00002040420F00B9
:100ED0000023014000200140002101400022014088
:100EE000704700000149012008707047030000208E
:100EF0002DE9F041044600680569224F69074FF06B
:100F000004060BD54661E06B40F00200E06384F814
:100F10002560A06B0765A06B00F0CFFEA8070DD57C
:100F2000216802204861E06B40F00100E06384F832
:100F30002560A06B0765A06B00F0BFFEE80605D535
:100F4000216810204861204600F061F8280705D587
:100F5000216808204861204600F09EF9E8070FD07C
:100F600020680168890703D5C16821F01E01C160AE
:100F70002068C16821F00101C1602046FFF7B2FF7F
:100F8000BDE8F0814D08000870B5040004D094F865
:100F90002500002510B109E0012070BD84F824501F
:100FA000204600F035F8204600F032F8022084F8A0
:100FB00025002068016840F6F8729143016061697C
:100FC00060680843D4E9031211430843A168084349
:100FD000A1690843216A084321680A681043086030
:100FE0006068102808D1A17FA08B61F31F40E17FCA
:100FF00040EA0160216888612068C16841F01E01F3
:10100000C160E563012084F82500002070BD7047B1
:10101000F0B587B0064614216846FFF72FF94A4914
:10102000306888427DD149480025016841F00101BE
:1010300001600068454900F00100091F059008683B
:1010400040F001000860086800F0010005900868A1
:1010500040F080000860086800F080000590086893
:1010600040F008000860086800F008000590086873
:1010700040F040000860086800F0400005900868F3
:1010800040F0020008600868022400F002000590A9
:1010900050208DE831000D27CDE9035769462C48D3
:1010A00000F0F4FF4FF4BC408DE83100CDE9035768
:1010B0006946284800F0EAFF08208DE83100CDE9B4
:1010C00003576946244800F0E1FF20028DE8310013
:1010D000CDE903576946214800F0D8FF4FF440702E
:1010E0008DE83100CDE9035769461D4800F0CEFF79
:1010F0001D4C1C4820604FF00070C4E901054013EE
:10110000E560C4E904504000A0614011E061400284
:101110002062042060620120C4E90A05204625639C
:1011200000E00EE000F0ACFE08B1FFF74BFCB4634A
:10113000002211464E20A66301F03AF94E2001F03C
:1011400029F907B0F0BD0000000005503438024016
:1011500000000240001C0240000C02400018024047
:101160000004024028640240EC010020F8B5044667
:1011700090F82400012827D0012084F824000225BB
:1011800084F8255025682E6846F480462E60256830
:101190002E6826F002062E6025682E680E432E600B
:1011A000A56B1E49E963A66B1D4DF564A66B002572
:1011B0003565A56206042563B34207D22168A06B9A
:1011C000283100F0C7FE1FE00220F8BDA76B79644C
:1011D000A062E362626305E0E06A4008E062A06A40
:1011E0004000A062E06AB042F6D2A06A801EA0620F
:1011F000A06A2063E06A02EB8003E06A0090216845
:10120000A06B283100F050F82068016841F001011E
:10121000016084F824500020F8BD00006508000833
:101220004D080008F8B504461A480E21002500684C
:10123000B0FBF1F0009094F82400012827D001269B
:1012400084F82460022084F825002068016821F0D9
:1012500001010160206800994A1E009205D2E16BED
:1012600041F02001E163032502E00168C907F2D1E2
:10127000016821F480410160A06B243400F0D4FCAB
:10128000A069A0616670002020702846F8BD022089
:10129000F8BD00001C0000207047006812B1016119
:1012A00000207047C160FBE72DE9F84F044600209D
:1012B0000A9D0090A0684FF4807A802817D0E06BD8
:1012C000B8B1606CA8B1E06C98B194F83400012812
:1012D00013D0012084F8340094F835600020012EEA
:1012E0000DD084F8340002200090BDE8F88F5046FD
:1012F00000E0402060650120F7E70220F5E70226C4
:1013000084F8356060652068066846F480260660CB
:10131000206803612B462046FFF730FBDFF800848E
:101320004FF4006B4FF4001EFE48FD4AFD4BFC4D90
:10133000FC4EFB4FDFF8ECC3DFF8E4932168483A3A
:10134000603318351836303F0CF1780C09F130094C
:10135000414534D9814205D0914203D0994201D010
:10136000A94201D1202125E0B14205D0B94203D0E4
:10137000614501D0494501D159461BE0DFF8A483FE
:1013800008F13008414511D0DFF89483A8F118081E
:1013900041450BD0DFF88C8308F19008414505D01A
:1013A000DFF87C8308F14808414501D1714601E02E
:1013B0004FF00061DFF86883A8F14C0839E0DFF8EE
:1013C000648308F1A808414536D9814205D091428D
:1013D00003D0994201D0A94201D1202125E0B14298
:1013E00005D0B94203D0614501D0494501D15946E4
:1013F0001BE0DFF8308308F13008414511D0DFF8F9
:101400002083A8F1180841450BD0DFF8188308F1B4
:101410009008414505D0DFF8088308F148084145A8
:1014200001D1714601E04FF00061DFF8F482A8F1CC
:101430005008C8F8001072E0DFF8E88208F14808A8
:10144000414536D9814205D0914203D0994201D01D
:10145000A94201D1202125E0B14205D0B94203D0F3
:10146000614501D0494501D159461BE0DFF8B482FE
:1014700008F13008414511D0DFF8A482A8F118081E
:1014800041450BD0DFF89C8208F19008414505D01A
:10149000DFF88C8208F14808414501D1714601E02E
:1014A0004FF00061DFF87C82A8F11008C8F80C103A
:1014B00035E0814205D0914203D0994201D0A94242
:1014C00001D1202125E0B14205D0B94203D06145C8
:1014D00001D0494501D159461BE0DFF8488208F1A7
:1014E0003008414511D0DFF83882A8F1180841458D
:1014F0000BD0DFF8308208F19008414505D0DFF8C5
:10150000208208F14808414501D1714601E04FF0C1
:101510000061DFF81082A8F11008C8F80810DFF8A1
:10152000008221684FF4806B4FF4801E414534D90E
:10153000814205D0914203D0994201D0A94201D104
:10154000102125E0B14205D0B94203D0614501D058
:10155000494501D159461BE0DFF8C88108F1300840
:10156000414511D0DFF8B881A8F1180841450BD0EA
:10157000DFF8B08108F19008414505D0DFF8A0817F
:1015800008F14808414501D1714601E04FF0806102
:10159000DFF88C81A8F14C0839E0DFF8888108F188
:1015A000A808414536D9814205D0914203D09942DD
:1015B00001D0A94201D1102125E0B14205D0B942A4
:1015C00003D0614501D0494501D159461BE0DFF800
:1015D000548108F13008414511D0DFF84481A8F169
:1015E000180841450BD0DFF83C8108F190084145CF
:1015F00005D0DFF82C8108F14808414501D171463A
:1016000001E04FF08061DFF81881A8F15008C8F8B8
:10161000001072E0DFF80C8108F14808414536D926
:10162000814205D0914203D0994201D0A94201D113
:10163000102125E0B14205D0B94203D0614501D067
:10164000494501D159461BE0DFF8D88008F1300840
:10165000414511D0DFF8C880A8F1180841450BD0EA
:10166000DFF8C08008F19008414505D0DFF8B08070
:1016700008F14808414501D1714601E04FF0806111
:10168000DFF8A080A8F11008C8F80C1035E08142FE
:1016900005D0914203D0994201D0A94201D1102135
:1016A00025E0B14205D0B94203D0614501D049459A
:1016B00001D159461BE0DFF86C8008F13008414544
:1016C00011D0DFF85C80A8F1180841450BD0DFF895
:1016D000548008F19008414505D0DFF8448008F1B6
:1016E0004808414501D1714601E04FF08061DFF8C3
:1016F0003480A8F11008C8F80810DFF824802168A9
:101700004FF4007B4FF4002E414534D9814205D07F
:10171000914203D0994201D0A94205D1082125E088
:101720005864024010600240B14205D0B94203D073
:10173000614501D0494501D1594617E0DFF8E08401
:1017400041450FD0DFF8DC8441450BD0DFF8D08471
:1017500008F16008414505D0DFF8C88408F1600849
:10176000414501D1714601E04FF00071DFF8B484CA
:10177000A8F1340835E0DFF8A88408F1780841457D
:1017800032D9814205D0914203D0994201D0A94279
:1017900001D1082121E0B14205D0B94203D0614511
:1017A00001D0494501D1594617E0DFF8748441451D
:1017B0000FD0DFF8708441450BD0DFF8648408F166
:1017C0006008414505D0DFF85C8408F160084145B8
:1017D00001D1714601E04FF00071DFF84884A8F1B3
:1017E0003808C8F800106AE0DFF8348408F11808F7
:1017F000414532D9814205D0914203D0994201D06E
:10180000A94201D1082121E0B14205D0B94203D05B
:10181000614501D0494501D1594617E0DFF8008400
:1018200041450FD0DFF8FC8341450BD0DFF8F08352
:1018300008F16008414505D0DFF8E88308F1600849
:10184000414501D1714601E04FF00071DFF8D083CE
:10185000A8F14008C8F80C1031E0814205D091424F
:1018600003D0994201D0A94201D1082121E0B1421F
:1018700005D0B94203D0614501D0494501D159464F
:1018800017E0DFF89C8341450FD0DFF8988341458E
:101890000BD0DFF88C8308F16008414505D0DFF8F4
:1018A000848308F16008414501D1714601E04FF0A1
:1018B0000071DFF86C83A8F14008C8F80810DFF861
:1018C0006483216808F118084FF4802B4FF0807E64
:1018D00041452FD9814205D0914203D0994201D090
:1018E000A94201D1042120E0B14205D0B94203D080
:1018F000614501D0494501D1514616E0DFF820830A
:1019000041450FD0DFF81C8341450BD0DFF8108331
:1019100008F16008414505D0DFF8088308F1600848
:10192000414501D1594600E07146DFF8F882A8F13F
:10193000340834E0DFF8E88208F17808414531D90D
:10194000814205D0914203D0994201D0A94201D1F0
:10195000042120E0B14205D0B94203D0614501D055
:10196000494501D1514616E0DFF8B48241450FD018
:10197000DFF8B08241450BD0DFF8A48208F160089F
:10198000414505D0DFF89C8208F16008414501D14E
:10199000594600E07146DFF88C82A8F13808C8F893
:1019A000001068E0DFF8788208F11808414531D965
:1019B000814205D0914203D0994201D0A94201D180
:1019C000042120E0B14205D0B94203D0614501D0E5
:1019D000494501D1514616E0DFF8448241450FD018
:1019E000DFF8408241450BD0DFF8348208F160080F
:1019F000414505D0DFF82C8208F16008414501D14E
:101A0000594600E07146DFF81882A8F14008C8F88E
:101A10000C1030E0814205D0914203D0994201D0B0
:101A2000A94201D1042120E0B14205D0B94203D03E
:101A3000614501D0494501D1514616E0DFF8E0810A
:101A400041450FD0DFF8DC8141450BD0DFF8D08174
:101A500008F16008414505D0DFF8C88108F1600849
:101A6000414501D1594600E07146DFF8B481A8F143
:101A70004008C8F80810DFF8AC81216808F11808A0
:101A80004FF4803A4FF4800B414527D9814205D06D
:101A9000914203D0994201D0A94201D101201AE01C
:101AA000B14205D0B94203D0614501D0494501D1C9
:101AB000402010E05A4881420AD05A48814207D05B
:101AC00057486030814203D056486030814201D18E
:101AD000504600E05846534934392CE0DFF8408145
:101AE00008F17808414528D9814205D0914203D0B8
:101AF000994201D0A94201D101201AE0B14205D09A
:101B0000B94203D0614501D0494501D1402010E0E0
:101B1000434881420AD04348814207D04048603060
:101B2000814203D03F486030814201D1504600E0FD
:101B300058463C493839086056E0DFF8E48008F13F
:101B40001808414528D9814205D0914203D09942D5
:101B500001D0A94201D101201AE0B14205D0B94219
:101B600003D0614501D0494501D1402010E02C4807
:101B700081420AD02B48814207D0294860308142F7
:101B800003D028486030814201D1504600E05846D9
:101B900023494039C86027E0814205D0914203D0F3
:101BA000994201D0A94201D101201AE0B14205D0E9
:101BB000B94203D0614501D0494501D1402010E030
:101BC000174881420AD01748814207D01448603034
:101BD000814203D013486030814201D1504600E079
:101BE00058460F49403988602068016841F0160165
:101BF00001602068416941F080014161206C08B9B1
:101C0000A06C20B12068016841F0080101602068E3
:101C1000016841F0010101600098BDE8F88F000003
:101C200040600240406402402DE9F0410446876D67
:101C300000F050FB064694F835000025022806D037
:101C40008020606584F834500120BDE8F081206870
:101C5000016821F0160101602068416921F08001CE
:101C60004161206C08B9A06C20B12068016821F0A6
:101C7000080101602068016821F0010101600CE0A9
:101C800000F028FB801B052807D920206065032071
:101C900084F8350084F83450D7E720680068C0071E
:101CA000EED194F85C103F208840B860012084F8A1
:101CB000350084F834500020C7E790F83510022929
:101CC00003D08021416501207047052180F835103F
:101CD0000068016821F001010160002070470000E8
:101CE0002DE9F84304464FF00009CDF80090634811
:101CF0004FF41651A56D0068B0FBF1F72E6894F80B
:101D00005C10082000FA01F131420FD021680A6806
:101D100052070BD50A6822F004020A6094F85C109E
:101D20008840A860606D40F00100606594F85C1028
:101D30004FF0010808FA01F0304208D021684969E3
:101D4000090604D5A860606D40F00200606594F853
:101D50005C1004208840304208D021680968890757
:101D600004D5A860606D40F00400606594F85C10D4
:101D700010208840304218D021680968090714D51E
:101D8000A86020680168490304D50068000308D5ED
:101D9000A16C07E00168C90503D4016821F00801BE
:101DA0000160216C09B12046884794F85C1020201E
:101DB0008840304231D021680968C9062DD5A86015
:101DC00094F8350005282068016806D0490347D5F6
:101DD000006800031DD4616C1CE021F01601016055
:101DE0002068416921F080014161206C08B9A06C34
:101DF00020B12068016821F00801016094F85C10AE
:101E00003F208840A86084F8358084F83490216DA4
:101E10001FE0E16B09B120468847606D00282BD098
:101E2000606DC00714D0052084F835002068016873
:101E300021F0010101600098401C0090B84203D8D5
:101E400020680068C007F6D184F8358084F83490A3
:101E5000E16C002910D001B02046BDE8F0430847EE
:101E60000168C905D5D4016821F01001016084F82A
:101E7000358084F83490CCE7BDE8F8831C0000205E
:101E80002DE9F041044600F025FA06465CB1022037
:101E900084F83500002584F834502068016821F06A
:101EA000010101600DE00120BDE8F08100F012FAAF
:101EB000801B052805D920206065032084F83500A3
:101EC000F2E720680068C007F0D122681168204856
:101ED0000140D4E901031843D4E9033633431843DE
:101EE00063691843A3691843E3691843236A1843D5
:101EF0000843616A042903D1D4E90B131943084349
:101F0000106020684069666A20F0070130460E4381
:101F1000012704280CD1A06A0643E06A40B120469C
:101F2000FEF702FD20B14020606584F83570BAE705
:101F3000206846612046FEF7E3FC94F85C203F21D0
:101F400091408160656584F835700020ACE7000041
:101F50003F8010F02DE9F0410446866D90F8340082
:101F6000002501280DD0012084F8340094F8357044
:101F70000020012F07D084F8340002252846BDE850
:101F8000F0810220FBE7022784F835706065204667
:101F9000FEF703FD94F85C103F208840B060206895
:101FA000016841F016010160206C20B120680168D1
:101FB00041F0080101602068016841F00101016001
:101FC000DCE7000070B5044600F084F90546601CAB
:101FD00002D004480078044400F07CF9401BA04281
:101FE000FAD370BD10000020F0B587B01421684608
:101FF000FEF744F91F480168002939D10121016029
:102000001D480024016841F00101016000680225BB
:1020100000F00100059047F23F00CDE9000502AA5B
:1020200003260C2782E8D0006946144800F02EF8F9
:102030004FF68070CDE9000502AA694682E8D0001B
:102040000F4800F023F84CF23370CDE9000502AAE6
:10205000694682E8D0000B4800F018F86802CDE924
:10206000000502AA694682E8D000074800F00EF891
:1020700007B0F0BD040000203838024000140240D0
:1020800000100240000C0240001802402DE9F84FF9
:10209000DFF8F8A10022012403254FF00F090AF10F
:1020A000040BAAF1040E00BF0B6804FA02F63340D9
:1020B000B34270D10F7907F00307012F01D0022F2F
:1020C00016D187684FEA420805FA08FC27EA0C0790
:1020D000D1F80CC00CFA08FC4CEA070CC0F808C098
:1020E0004768B7430E79C6F3001696403E434660F4
:1020F0000E79F643B6070AD0C7684FEA420C05FAD4
:102100000CF6B7438E6806FA0CF63E43C6600E79AD
:1021100006F00306022E10D1D60800EB8608D8F888
:10212000206057074FEAD76C09FA0CF7BE430F69D6
:1021300007FA0CF73743C8F8207006684FEA420CDC
:1021400005FA0CF7BE430F7907F0030707FA0CF7FF
:10215000374307604E6816F4403F1CD04C4E37683A
:1021600047F480473760366822F0030706F480465C
:102170000096484E07EB060CDCF8086897073F0FFF
:1021800009FA07F826EA0806DFF80C81404503D172
:102190004FF0000841E072E0DFF80081404502D1D5
:1021A0004FF0010839E0DFF8F880404502D14FF0E8
:1021B000020832E0DFF8EC80404502D14FF003081E
:1021C0002BE0DFF8E480404502D14FF0040824E022
:1021D000DFF8D880404502D14FF005081DE0DFF858
:1021E000D080404502D14FF0060816E0DFF8C480E9
:1021F000404502D14FF007080FE0DFF8BC804045B2
:1022000002D14FF0080808E0DFF8B080404502D165
:102210004FF0090801E04FF00A0808FA07F848EA09
:102220000608CCF80888DAF800605746D1F804C0F0
:102230009E435FEACC2C00D51E433E60DBF8006075
:102240005F46D1F804C09E435FEA8C2C00D51E4344
:102250003E60DEF800607746D1F804C09E435FEA36
:102260008C3C00D51E433E60084F083F3E68D1F8C5
:1022700004C09E435FEACC3C00D51E433E60521C26
:10228000102AFFF411AFBDE8F88F0000083C0140B0
:102290004438024000300140000002400004024087
:1022A00000080240000C02400010024000140240EE
:1022B00000180240001C024000200240002402409E
:1022C0000069084000D0012070470AB18161704761
:1022D0000904FBE7014880687047000010000020F7
:1022E0000248816802781144816070471000002024
:1022F0000B4810B5016841F400710160016841F4B8
:1023000080610160016841F480710160032000F088
:102310006FF80F2000F006F800F024F8002010BD40
:10232000003C024070B50D4D04464FF47A71287898
:10233000B1FBF0F00A490968B1FBF0F000F080FB56
:1023400048B9102C07D200222146501E00F030F868
:1023500000206C6070BD012070BD000010000020E6
:102360001C0000200A4808B5016841F48041016062
:10237000006800F4804000900548001F016841F0AB
:1023800080510160006800F08050009008BD00009E
:1023900044380240002809DB00F01F02012191406F
:1023A0004009800000F1E020C0F8001170470000F3
:1023B000F0B40E4B1B680C46C3F30223C3F10705B0
:1023C000042D00D90425191D072901D2002300E09E
:1023D000DB1E012606FA05F1491E214099409E4068
:1023E000761E16403143F0BC02F06EB90CED00E0F1
:1023F000064900F0070208684FF6FF03184040EA5C
:102400000220034A10430860704700000CED00E012
:102410000000FA052DE9F8431748016841F08051A2
:1024200001600068154F00F08050012600903E6466
:10243000FFF750FF05464FF47A78114C05E000BFD6
:10244000FFF748FF401B40450DD86068C003F7D533
:102450007E64FFF73FFF0546464607E0FFF73AFF79
:10246000401BB04202D90320BDE8F88360688003B6
:10247000F4D50020F8E700004038024000000E428A
:10248000007000402DE9F0470E46050065D0DFF8EA
:102490001481D8F80000F7B200F00F00B04207D264
:1024A00088F80070D8F8000000F00F00B04254D156
:1024B00028683D4C810712D5400703D5206840F4B9
:1024C000E05020602878000703D5206840F4604081
:1024D00020602068A96820F0F00008432060287878
:1024E000C0072DD0304968680839012812D0022869
:1024F00013D0032811D00968890700292DDA216833
:1025000021F0030101432160FFF7E4FE814641F21F
:10251000883A0EE009688903EFE709688901ECE76A
:10252000FFF7D8FEA0EB0901514502D90320BDE811
:10253000F0872068696800F00C00B0EB810FEFD1E4
:10254000D8F80010404601F00F01B14207D90770DA
:10255000006800F00F00B04201D00120E7E72878C2
:10256000400705D52068E96820F4E0500843206062
:102570002878000706D52068296920F4604040EAE1
:10258000C100206000F038F82168084AC1F3031147
:10259000515CC8400649086006480068FFF7C2FE63
:1025A0000020C4E7003C024008380240A47600083E
:1025B0001C00002014000020044805490068096838
:1025C000044AC1F38221515CC84070471C000020BE
:1025D00008380240B47600080448054900680968D4
:1025E000044AC1F34231515CC84070471C000020CE
:1025F00008380240B4760008154810B5006810F09D
:102600000C02144813D01449042A0FD0082A0ED102
:102610000F4C241F2268236802F03F025B0207D59B
:102620002068C0F38810A0FB010106E0084610BD39
:102630002168C1F38811A1FB00010023FDF7D4FD3F
:102640002168C1F30141491C4900B0FBF1F010BD04
:10265000083802400024F40040787D012DE9F84F4D
:1026600004006ED02078DFF84C93C007A9F1040570
:102670004AD009F104000168C1F38101012908D0A1
:102680000068C0F3810002280AD1D9F80000400296
:1026900006D52868800337D560680028E1D033E08C
:1026A0006068B0F5803F10D0B0F5A02F286810D03A
:1026B00020F480302860286820F48020286060683A
:1026C000A8B1FFF707FE06460DE0286840F4803009
:1026D000F4E740F480202860F7E700BFFFF7FAFD39
:1026E000801B642873D828688003F7D50CE0FFF7B7
:1026F000F1FD064605E000BFFFF7ECFD801B6428F6
:10270000F0D828688003F7D42078DFF8AC828007FF
:102710004FF0000A3ED5A748001D016811F00C0FCC
:1027200008D00068C0F3810002280BD1D9F800005E
:10273000400207D42868800716D5E068012800D138
:1027400012E033E1E068B8B10120C8F80000FFF7FB
:10275000C1FD064605E000BFFFF7BCFD801B022857
:10276000C0D828688007F7D52868216920F0F800CC
:1027700040EAC10028600DE0C8F800A0FFF7AAFDFC
:10278000064604E0FFF7A6FD801B02281FD8286834
:102790008007F7D42078000722D5864F87486169E3
:1027A000703771B101210160FFF794FD064604E026
:1027B000FFF790FD801B022809D838688007F7D5FD
:1027C0000EE0C0F800A0FFF785FD064605E082E0B8
:1027D000FFF780FD801B02287DD838688007F7D47A
:1027E0002078400768D5DFF8CCB100270BF13C0B0F
:1027F000DBF80000C0000BD4DBF8001041F0805182
:10280000CBF80010DBF80000012700F080500090AA
:102810006B4E3068C00510D4306840F48070306072
:10282000FFF758FD009005E0FFF754FD0099401AAE
:10283000022850D83068C005F6D55E4EA0686C36C8
:1028400001280FD00528306810D020F0010030603A
:10285000306820F004003060A068B8B1FFF73AFD9E
:1028600000900FE0306840F00100F4E740F0040011
:102870003060F7E7FFF72EFD0099411A41F28830EA
:10288000814266D830688007F4D50EE0FFF722FD5C
:10289000009007E0FFF71EFD0099411A41F28830D1
:1028A000814256D830688007F4D42FB1DBF800108D
:1028B00021F08051CBF80010A069C8B33D49091D33
:1028C0000968C1F3810102294AD00228504607D085
:1028D000C8F8600000E03CE0FFF7FCFC04463BE089
:1028E0004746C8F86000FFF7F5FC064605E000BF64
:1028F000FFF7F0FC801B02282BD828688001F7D452
:10290000D4E907010843A16A2E4A490802EB0141B4
:10291000626A41EA8211084394F82C1040EA01618E
:10292000C9F8001001203866FFF7D4FC044606E021
:102930003EE000BFFFF7CEFC001B022809D8286844
:102940008001F7D534E000BFFFF7C4FC001B02286C
:1029500002D90320BDE8F88F28688001F4D427E06D
:102960000128F7D0D9F80000E26900F48001914213
:102970001CD1226A00F03F01914217D147F6C07185
:10298000626A0140B1EB821F10D1A26A4FF0FF339F
:1029900000F4403103EB5202B1EB024F06D194F840
:1029A0002C1000F07060B0EB016F01D00120D1E776
:1029B0000020CFE70438024000004742800E474223
:1029C000007000400000FFFF70B515460E46040081
:1029D00003D094F8490010B107E0012070BD002039
:1029E00084F84800204600F01DF804F10801206832
:1029F000FEF708F83146A2682068FEF743F8D4E9EC
:102A000001022946236BFDF7DFFF2168A06851F81A
:102A1000202042F0010241F82020012084F84900E2
:102A2000002070BDFFF7E0BA4FF0E02104280869EC
:102A300003D020F004000861704740F00400FAE77A
:102A400010B5401EB0F1807F01D3012010BD4FF0C2
:102A5000E02460610F21601701F036FE0020A061C4
:102A600007202061002010BD7047704770B590F8B6
:102A70003C20012A32D0012480F83C40022280F818
:102A80003D2003685A689D6822F070060A68324348
:102A90005A60134B02689A4214D0B2F1804F11D0A1
:102AA000104B9A420ED0104B9A420BD00F4B9A42C9
:102AB00008D00F4B9A4205D00E4B9A4202D00E4BD3
:102AC0009A4204D1496825F080031943916080F847
:102AD0003D40002180F83C10084670BD022070BDCA
:102AE000000001400004004000080040000C0040CD
:102AF00000040140004001400018004010B50400EF
:102B000003D094F83D0010B107E0012010BD002073
:102B100084F83C00204600F01FF8022084F83D00B5
:102B2000211D206801F032FC012084F8460084F861
:102B30003E0084F83F0084F8400084F8410084F8A7
:102B4000420084F8430084F8440084F8450084F887
:102B50003D00002010BD000008B500680B49884208
:102B600012D10B48016841F0100101600068002299
:102B700000F01000009011463620FFF719FCBDE868
:102B800008403620FFF706BC08BD000000100040DA
:102B90004038024090F83D10012901D001207047D3
:102BA000022180F83D100168CA6842F00102CA6043
:102BB00000681149884214D0B0F1804F11D00F49FC
:102BC00088420ED00E4988420BD00E49884208D068
:102BD0000D49884205D00D49884202D00C498842EF
:102BE00004D1816801F00701062903D0016841F092
:102BF0000101016000207047000001400004004016
:102C000000080040000C004000040140004001406A
:102C100000180040704770B50446006801694FF025
:102C20000005C943890715D4C168C943890711D470
:102C3000E91E016101202077206880698007204615
:102C400002D0FFF7E7FF04E000F098F8204600F01C
:102C500096F8257720680169C943490717D4C168E8
:102C6000C943490713D46FF00401016102202077A2
:102C70002068806910F4407F204602D0FFF7CAFF29
:102C800004E000F07BF8204600F079F82577206812
:102C90000169C943090716D4C168C943090712D499
:102CA0006FF008010161042020772068C069800767
:102CB000204602D0FFF7AEFF04E000F05FF82046A8
:102CC00000F05DF8257720680169C943C90617D46B
:102CD000C168C943C90613D46FF01001016108200F
:102CE00020772068C06910F4407F204602D0FFF7AB
:102CF00091FF04E000F042F8204600F040F825770C
:102D000020680169C943C90708D1C168C943C90717
:102D100004D1891E0161204600F032F82068016963
:102D2000C943090609D4C168C943090605D46FF02F
:102D3000800101612046FFF797FE20680169C943C1
:102D4000490609D4C168C943490605D46FF040015A
:102D50000161204600F028F820680169C94389060E
:102D60000BD4C168C943890607D46FF02001016103
:102D70002046BDE87040FFF778BE70BD70477047D1
:102D80000068074988420AD106490868401C086063
:102D9000B0F57A7F03D30020086003F025BC7047AC
:102DA000001000400C000020704770B5040004D0F3
:102DB00094F83D00002510B106E0012070BD84F8B4
:102DC0003C50204600F022F8242084F83D00206882
:102DD000C16821F40051C160204601F065FB206804
:102DE000016921F4904101612068416921F02A01C3
:102DF00041612068C16841F40051C1602564202010
:102E000084F83D0084F83E00002070BD10B586B007
:102E1000044614216846FDF731FA144920688842B7
:102E200021D113480021026842F0100202600068BC
:102E300000F0100005900E481438026842F00102BC
:102E40000260006800F0010005904FF4C06000903F
:102E50000220CDE901010320039007200490694678
:102E60000448FFF713F906B010BD00000010014040
:102E700044380240000002402DE9F843044690F82F
:102E80003D001F4616460D4620284CD1C5B1BEB1A7
:102E900094F83C00012846D0012084F83C004FF013
:102EA0000008C4F84080212084F83D00FFF712FAA2
:102EB000A6848146E684A068B0F5805F03D004E074
:102EC0000120BDE8F883206928B12E465FF0000597
:102ED00084F83C800EE00026FAE78021204601F0CD
:102EE00069FBA0B9AEB116F8010B21684860E08C0F
:102EF000401EE084E08C4B464FF000020097002813
:102F0000EBD14FF04001204601F054FB30B10320DB
:102F1000D7E735F8020BC0F30800E6E7202084F875
:102F20003D000020CDE70220CBE7FEE72DE9F04190
:102F30000746002140F23F13EF220846FDF744FC0C
:102F400000254FF4A0760024384600F015FA641CE2
:102F5000E4B2F02CF8D36D1CADB2B542F3D3BDE8AA
:102F6000F08110B514460B460246FDF72DFC2046B5
:102F7000BDE8104000F000BA10B5604C01220221FB
:102F80002046FFF7A2F90120FFF71CF800220221DA
:102F90002046FFF79AF90120FFF714F801220221D9
:102FA0002046FFF792F97820FFF70CF8544C0022E6
:102FB00001212046FFF789F9CF2000F071F90020A8
:102FC00000F0A4F9D92000F0A1F9302000F09EF91A
:102FD000ED2000F065F9642000F098F9032000F07E
:102FE00095F9122000F092F9812000F08FF9E82085
:102FF00000F056F9852000F089F9102000F086F9DC
:10300000782000F083F9CB2000F04AF9392000F055
:103010007DF92C2000F07AF9002000F077F93420B7
:1030200000F074F9022000F071F9F72000F038F98F
:10303000202000F06BF9EA2000F032F9002000F0C7
:1030400065F9002000F062F9C02000F029F9212084
:1030500000F05CF9C12000F023F9122000F056F9CD
:10306000C52000F01DF9322000F050F93C2000F09E
:103070004DF9C72000F014F9C12000F047F93620BF
:1030800000F00EF9082000F041F93A2000F008F9AC
:10309000552000F03BF9B12000F002F9002000F0CB
:1030A00035F9182000F032F9B62000F0F9F80A20BE
:1030B00000F02CF9A22000F029F9F22000F0F0F83D
:1030C000002000F023F9262000F0EAF8012000F0AB
:1030D0001DF9112000F0E4F87820FEF773FF292095
:1030E00000F0DEF8012204212046FFF7EEF8054843
:1030F000F02101804FF4A071418010BD0008024012
:1031000000000240405701202DE9F04107461D46CE
:1031100016460C462A2000F0C3F8384600F02CF979
:10312000B819401E80B200F027F92B2000F0B8F843
:10313000204600F021F96019401E80B200F01CF911
:10314000BDE8F0412C2000F0ABB800002DE9FF5F96
:103150001D460C468A46580700D0012000EBD500DA
:10316000690810FB01F0203A00F0FF0902F0FF0BA4
:1031700000263FE00C2D11D0102D13D0182D3BD17F
:103180001E490BEBCB0000BF01EB80004FF00008A5
:10319000875D38060AD51A4802880BE00BEB4B0016
:1031A0001849F1E7184901EB0B10EFE70E9828B921
:1031B0001348428821460098FFF7D3FE7806641C26
:1031C000070EA4B2B4F5A07F16D2A4EB0A00A84261
:1031D00007D100985446401C80B20090F0280BD2D2
:1031E00006E008F1010000F0FF08B8F1080FD0D3A5
:1031F000761CF6B24E45BDD3BDE8FF9FFB820008AA
:1032000064000020977800080B7D00082DE9F0414C
:1032100014460D468046F026A0273B4632462146FE
:103220002846FFF771FF00255FF0000405FB06410B
:1032300038F8110000F0A0F8641CA4B2B442F5D331
:103240006D1CADB2BD42EFD3BDE8F0812DE9F84F62
:10325000044600F0FF0910190D46DDE90AB61FFA11
:1032600080F8581987B24FF0000A12E0444503D3A2
:1032700005EB0B004C4685B2BD420FD25B4629469A
:103280002046CDF800A0FFF761FF04EB5B0084B29D
:10329000761C3278A2F120005E28E7D9BDE8F88FCD
:1032A0002DE9F041174E0546002208213046FFF770
:1032B0000CF8154F002201213846FFF706F8B846F2
:1032C00000244FF6FF77280601D5012200E00022F6
:1032D00002214046FEF7F9FF002204213046FEF7A6
:1032E000F4FF012204213046FEF7EFFF641C07EAD9
:1032F0004505082CE7DB4046BDE8F04101221146B8
:10330000FEF7E3BF00080240000002402DE9F04153
:10331000174E0546012208213046FEF7D6FF154F0D
:10332000002201213846FEF7D0FFB84600244FF6B0
:10333000FF77280601D5012200E000220221404645
:10334000FEF7C3FF002204213046FEF7BEFF012234
:1033500004213046FEF7B9FF641C07EA4505082C36
:10336000E7DB4046BDE8F04101221146FEF7ADBF64
:10337000000802400000024010B50446000AFFF7B2
:10338000C5FF2046BDE81040FFF7C0BFF0B4DDE93F
:103390000565049F016500214FEA010400EBC10CA3
:1033A000491CCCF824400529F8DB46610462C0E9D9
:1033B0000127C0E9035304770121C46440F8541B7A
:1033C000F0BC01F05BB80000F0B59BB00E460446BF
:1033D0004FF0FF373D46582220496846FCF735FF3D
:1033E000206A88BB16A801F049F816A8616801F0A8
:1033F0003DF806B96E4604F15400318BA16101F02D
:1034000029F83246A168206900F0E8F9011E21DDA3
:1034100016AA204603F09AFB05001BD116AA02212A
:10342000204603F0D3FE02280DD1FF208DF8600066
:1034300000208DF8640018A919A8E368626900F0FB
:1034400033F8012801D03D4604E09DF860500DB9E5
:10345000012020621BB02846F0BD000058900008F3
:103460002DE9FC41074615460E46002468460093A8
:1034700003F066F960F30704C4F3C000307020095C
:10348000387001A9009800F0DBF80099019A014416
:1034900000910A44511A022904DB684603F056F9E8
:1034A00028800120BDE8FC812DE9FC41074600246D
:1034B0000E4625466846009203F042F90146204632
:1034C00061F307000009022818D101A9009800F053
:1034D000B7F8009905460844019900900144081A7C
:1034E00002280BDB684603F02BF960F30704E009C0
:1034F0003870684603F024F9307001252846BDE88D
:10350000FC812DE9FC5F8046DDE90EA00024CDE9B9
:103510000004994617460E462546DDF834B0684645
:1035200003F00EF960F30704200903282CD1C4F33B
:10353000C00188F80010C4F34100306004F00100BD
:10354000387001A9009800F07BF8009905460844FE
:10355000019900904418224669460C9803F0FFF840
:1035600090B10098201A0FD43068002804DD684616
:1035700003F0ECF8A9F800000098211ACAF800102E
:1035800000990125CBF800102846BDE8FC9F2DE9E5
:10359000FC4781460A98002400909A4616468846C1
:1035A0002546684603F0CCF80146204661F3070043
:1035B0000009092826D101A9009800F041F80099D6
:1035C00005460844019900904718381A022819DB6B
:1035D000684603F0BBF8A9F8000034600EE03168DB
:1035E000414502DD4FF0FF350CE0684603F0A8F8D6
:1035F00031688B00491C31604AF803000098B842DA
:10360000EDD301252846BDE8FC87F8B50125002447
:103610000E4607460C60641C042C0FDC0121684632
:10362000B84701280AD19DF80000316800F07F02F8
:1036300002FB0511ED0131600006ECD42046F8BD17
:10364000024A10600248FFF7E0BF000014010020AA
:103650002557000810B503460020CA1701EB526435
:1036600024F07F02891ACAB2E111002902DD00BFED
:1036700042F080021A5400F10100EEDC10BD70B57A
:1036800004680E4624B12046FCF703FE054601E01F
:10369000D0E901543046FCF7FCFD854205D12A46AD
:1036A00031462046FCF7FCFD08B1002070BD01202A
:1036B00070BD0000401C802801DA401C7047B0F546
:1036C000804F01DA801C70470349884201DAC01C30
:1036D0007047001D70470000FFFF1F002DE9F043F9
:1036E00005464FF0FF37006A89B014463E464FF05A
:1036F0000009884670B307A800F0C0FE07A86968F3
:1037000000F0B4FE2078012801D0022803D1284619
:1037100002F0B4FBA080D4E90201CDE90501CDE9B6
:103720000289CDF81090A1886078CDE90001237856
:103730000022A968286900F01BF9011E25DD07AAEF
:10374000284603F003FA06001FD12078012802D092
:10375000022808D019E007AA0421284603F036FD04
:10376000042807D010E007AA0721284603F02EFD01
:10377000072809D1E868009001AA02A903A86B698B
:10378000FFF76EFE012800D03E4609B03046BDE886
:10379000F083F8B50024069E05460090042901DA5E
:1037A000A01EF8BD62F3071463F3C304062A24F0D5
:1037B000060000D1801CC1B2684603F03FFF022121
:1037C0000098FFF747FF009908440090314668468B
:1037D00003F03AFF0098401BF8BD00002DE9F843C4
:1037E00007460090884614460025104600F082F8EF
:1037F0008146FFF75FFF404502DDA81EBDE8F88364
:103800002E46314666F307016846103103F016FF75
:1038100049460098FFF71EFF009908440090207A5F
:1038200004281DD02FA1684603F0F4FE032168464A
:1038300003F004FFA07E66F3070560F34105E07E18
:1038400008B145F00405680707D594F83D0060F31A
:10385000C40594F83C0060F34515206C40B905E0C0
:1038600022A1684603F0D6FE0421E0E7A06C08B16F
:1038700045F08005E06C08B9606D08B145F0400581
:103880002946684603F0DAFE218B684603F0DCFE29
:1038900004F10C0168460EC903F0E5FEE07E68B154
:1038A0002434684694E80E00243C03F0DCFE3034F7
:1038B000684694E80E00303C03F0D5FE280605D596
:1038C00004F1400168460EC903F0CDFE680605D537
:1038D0004C34684694E80E0003F0C5FE0098C01B07
:1038E0008CE700004D514973647000004D515454F1
:1038F0000000000070B50446007A0025032802D0BD
:10390000042802D002E00C2500E00A2504F10C0096
:1039100007C800F067F90544E07EAD1C78B1243497
:1039200094E80700243C00F05DF93034064694E842
:103930000700303C00F056F9304405442D1D206C42
:1039400008B9A16C29B1D4E9111200F04BF9054472
:10395000AD1CE06C08B9616D29B1D4E9141200F016
:1039600041F90544AD1C284670BD0C2200F0AFB8EB
:103970002DE9FC5F1C46129ECDE90060DDF838B0F1
:103980009046DDF830A0DDE90F2389460746594609
:10399000204600F030F80546FFF78CFE484503DD71
:1039A0006FF00100BDE8FC9F302168F3C30164F3B0
:1039B00042016AF3000101A803F040FE2946019884
:1039C000FFF748FE019908440190DDE90F235946AD
:1039D00001A803F048FE002C03DD01A80D9903F0B7
:1039E00033FE324611990198FCF72FFC01983044C0
:1039F0000190C01BD6E770B50E46114604461A4624
:103A00003046049D00F0EEF82844801C002C00DDB8
:103A1000801C70BD2DE9FF4F83B0064610A8894673
:103A200090E8800900249246254641463846009693
:103A300000F036F80190FFF73DFE484503DDA01E7B
:103A400007B0BDE8F08F64F3070480346AF3C30461
:103A500024F00600801CC1B2684603F0EFFDDDE9EA
:103A60000001FFF7F7FD00990844009068460699A9
:103A700003F0EAFD0FE000BF05EB450108EB810014
:103A800090E80E00684603F0EEFD1BF8051068464E
:103A900003F0D4FD6D1CBD42EEDB0098801BCFE728
:103AA0002DE9F04102250F46064600240AE000BF3A
:103AB00004EB440007EB800007C800F093F80544CE
:103AC000641CED1CB442F3DB2846BDE8F08138B538
:103AD000002304460090022901DA981E38BD1946D9
:103AE00063F3070162F30711684603F0A7FD0021A5
:103AF0000098FFF7AFFD009908440090001B38BD07
:103B00002DE9F0438DB04FF0000806910446CDF842
:103B10001C80CDF820808DF82C204FF0FF37006AF4
:103B200099460E463D4620B309A800F0A7FC09A817
:103B3000616800F09BFC204602F0A0F983B20BAA5A
:103B400006A901208DE807000022A1682069FFF77F
:103B500061FF011E0DDD09AA204602F0F7FF0500F6
:103B600007D109AA0921204603F030FB092804D017
:103B70003D460DB02846BDE8F083CDE90278E16806
:103B80006069CDE9000102AB03AA012104A8FFF797
:103B9000FEFC012802D1029D802DEAD05FF00000DA
:103BA00004EBC001496A19B1401C0528F8DBE0E7C5
:103BB00004EBC0000025C0E90969DAE77CB50646D8
:103BC0000D460024684600F059FC2946684600F07E
:103BD0004DFC6946304601F0C1FE401C00D1441E38
:103BE00020467CBD10B510B1FCF753FB01460846DA
:103BF00010BD00007FB50024154800940194029484
:103C00001249039401604FF48031C0E9011404614A
:103C1000047680F820400F49C0E90A140125C561E7
:103C2000C46080F830404561FDF713F808B1FCF737
:103C3000C9FE0320CDE90005694602940448FCF75B
:103C400053FF002801D0FCF7BDFE7FBD00200140DE
:103C50001C0100200100000F7FB5002415480094CE
:103C6000019402941249039401604FF48031C0E939
:103C700001140461047680F820400F49C0E90A1459
:103C80000125C561C46080F830404561FCF7E1FF63
:103C900008B1FCF797FE0720CDE9000569460294BC
:103CA0000448FCF721FF002801D0FCF78BFE7FBD04
:103CB00000210140640100200100000F0B4810B5F5
:103CC0000949016000212022C0E90112C16001619F
:103CD000416181610162FDF757F9002803D0BDE819
:103CE0001040FCF76FBE10BD00000550AC01002075
:103CF000094808B5016841F48001016000680022AC
:103D000000F48000009011463920FEF751FBBDE819
:103D100008403920FEF73EBB3038024000B587B07E
:103D20001C216846FCF7AAFA16484FF020410422ED
:103D300001601549C0E901120021C0E903121022F7
:103D4000C0E90521C16113020162C0E90913C16222
:103D5000016341638163C16341640F20FF230090CD
:103D6000CDE90103CDE903021120CDE905010022CF
:103D700069460448FEF728FE002801D0FCF722FE21
:103D800007B000BD4C020020040100A02DE9F04363
:103D900087B014216846FCF771FA55480025016880
:103DA00041F020010160016801F0200105910168E6
:103DB00041F080010160016801F080010591016816
:103DC00041F004010160016801F0040105910168FE
:103DD00041F001010160016801F0010105910168F4
:103DE00041F010010160016801F0100105910168C6
:103DF00041F008010160016801F0080105910168C6
:103E000041F400710160016801F4007105910168DD
:103E100041F040010160016801F040010591016835
:103E200041F0020101600068324E00F0020005908E
:103E300000222E213046FEF748FA2F4F002227217C
:103E40003846FEF742FADFF8B480012210214046DE
:103E5000FEF73BFA002260214046FEF736FADFF813
:103E6000A090002218214846FEF72FFA2E200124A8
:103E70008DE83100694630460395FEF707F90720C3
:103E80008DE83100694638460395FEF7FFF820209B
:103E9000CDE900040226CDE9024669463846FEF720
:103EA000F5F84020CDE90005694616480295FEF771
:103EB000EDF81020009001AA112082E85100694617
:103EC0004046FEF7E3F86020CDE90004CDE9024664
:103ED00069464046FEF7DAF81820CDE90004CDE93E
:103EE000024669464846FEF7D1F807B0BDE8F083C0
:103EF0003038024000080240000002400018024032
:103F000000040240002402401CB500241248009422
:103F10001049019401600121C0E901144AF6C771FA
:103F2000C16080218161FEF7E9FD08B1FCF74AFD1F
:103F30000094694608480194FEF798FD08B1FCF723
:103F400041FD0548FEF726FE002801D0FCF73AFDAA
:103F50001CBD0000001000409C0200200C4810B561
:103F60000A4901604FF4E1314160002181600C2277
:103F7000C160C0E904128161C161FEF716FF00282B
:103F800003D0BDE81040FCF71DBD10BD001001407E
:103F9000E4020020FEE7FEE70160034941600349B7
:103FA00081600349C1607047657100089D71000818
:103FB0005D7100087047000000B585B014216846A7
:103FC000FCF75CF940200090002001900120029055
:103FD00069460248FEF75AF805B000BD00180240D5
:103FE00000B585B014216846FCF748F940200090E0
:103FF0000120019002900220039069460248FEF7DA
:1040000045F805B000BD00000018024010B50F4C87
:10401000002220212046FEF758F9FFF7E1FF002299
:1040200040212046FEF751F9142001F03FFD012206
:1040300020212046FEF749F9142001F037FD2046E3
:104040000022BDE810402021FEF73FB900180240D1
:1040500010B50F4C002220212046FEF736F9FFF75D
:10406000BFFF012240212046FEF72FF9142001F066
:104070001DFD012220212046FEF727F9142001F022
:1040800015FD20460022BDE810402021FEF71DB995
:10409000001802402DE9F04180460024FFF78CFF14
:1040A000154E00254FF6FF77002220213046FEF7FF
:1040B0000CF9142001F0FAFC012220213046FEF711
:1040C00004F907EA440440213046FEF7F9F808B144
:1040D000641CA4B2142001F0E9FC6D1CEDB2082DA3
:1040E000E2D3B8F1000F04D0FFF790FF2046BDE8FF
:1040F000F081FFF7ADFFF9E70018024070B5054603
:10410000FFF76EFF164E002220213046FEF7DDF845
:104110000024280601D5012200E00022402130467B
:10412000FEF7D3F86806050E142001F0BFFC01224B
:1041300020213046FEF7C9F8142001F0B7FC002218
:1041400020213046FEF7C1F8142001F0AFFC641CBA
:10415000E4B2082CDDD3BDE87040142001F0A6BC09
:104160000018024010B5FFF73BFF0E4C0122402122
:104170002046FEF7AAF8012220212046FEF7A5F8E6
:10418000142001F093FC002240212046FEF79DF808
:10419000142001F08BFC20460022BDE810402021B5
:1041A000FEF793B80018024010B5FFF719FF0E4C48
:1041B000002220212046FEF788F8002240212046D8
:1041C000FEF783F8142001F071FC01222021204623
:1041D000FEF77BF8012240212046FEF776F8BDE885
:1041E0001040142001F062BC0018024070B5002499
:1041F000FFF7E2FE134D012240212846FEF765F845
:104200000A2001F053FC012220212846FEF75DF828
:104210000A2001F04BFC07E0641CE4B2FA2C03D93D
:10422000FFF7C2FF012070BD40212846FEF748F885
:104230000028F1D1002220212846FEF746F8002070
:1042400070BD0000001802400321202000F021B8BA
:1042500010B5FFF787FFB120FFF750FFFFF7C6FF4C
:104260000120FFF717FF04020120FFF713FF0444AA
:104270000120FFF70FFF24020120FFF70BFF20446E
:1042800004020020FFF706FF0444FFF78DFF2046DD
:1042900010BD70B50D460446FFF764FFB020FFF770
:1042A0002DFFFFF7A3FF2046FFF728FFFFF79EFF34
:1042B0002846FFF723FFFFF799FFFFF775FFBDE8DB
:1042C0007040642001F0D4BB7047FEF709B80000CD
:1042D00030B593B030216846FBF7D0FF14210CA80D
:1042E000FBF7CCFF20480025016841F080510160B8
:1042F000006800F0805011901C48016841F4404172
:1043000001600068022400F44040119001200390F5
:1043100010200490009406940820CDE90750B420A2
:10432000CDE9090404200B906846FEF797F908B11F
:1043300072B6FEE7FEF76EF808B172B6FEE70CA99A
:104340000F2081E831004FF4A0500F904FF48050BF
:10435000109005210CA8FEF795F8002801D072B640
:10436000FEE713B030BD000040380240007000404E
:104370000248016841F470010160704788ED00E077
:104380000148FEF748BC00009C020020F0B502681E
:10439000254C264D264E274F274B4FF0804CA042F0
:1043A00009D0604507D0A84205D0B04203D0B8423A
:1043B00001D0984204D122F0700E4A6842EA0E02FF
:1043C000A0421BD0604519D0A84217D0B04215D0EA
:1043D000B84213D0984211D0184DA8420ED0184DB3
:1043E000A8420BD0174DA84208D0174DA84205D0BF
:1043F000164DA84202D0164DA84203D122F44075B2
:10440000CA682A434D6922F080022A4302608A6802
:10441000C2620A688262A04201D0984201D1096951
:10442000016301214161F0BD000001400004004032
:1044300000080040000C0040000401400040014022
:10444000004401400048014000180040001C0040AA
:104450000020004001EB4102C2EBC111024A126888
:1044600002EBC1014160704710010020024A12684E
:10447000114441607047000010010020002141609C
:1044800070470000024940680968401AC00F704731
:1044900010010020034940680968401A00D5002037
:1044A000704700001001002070B5044600680169E3
:1044B000E26821F44051114301612169A068E26979
:1044C00008436169114308432168CA6849F20C63D3
:1044D0009A430243CA6020684169A26921F440718D
:1044E0001143416131492068884202D030498842F5
:1044F00002D1FEF771F801E0FEF75EF8E2690023F1
:10450000192164253226B2F5004F626828D0A0FB3D
:104510000101930F9200FBF767FE0146B0FBF5F037
:104520006FF01802504301EB800006EB0010B0FB67
:10453000F5F000F0F002B1FBF5F002EB0012B1FB78
:10454000F5F06FF01803584301EB800006EB001004
:10455000B0FBF5F000F00F0021681044886070BDDA
:10456000A0FB010192185B41FBF73EFE0146B0FB48
:10457000F5F00201B1FBF5F06FF01803584301EBC1
:10458000800006EBC000B0FBF5F000F0F80002EB95
:104590004002B1FBF5F0584301EB800006EBC00090
:1045A000B0FBF5F000F00700D6E700000010014076
:1045B000001401402DE9F041984617460E46044686
:1045C000069D27E0681C25D02DB1FDF783FEA0EBEA
:1045D0000800A8421ED920680C3050E8001F21F4C2
:1045E000D07140E80012002AF5D12068143050E85C
:1045F000001F21F0010140E80012002AF5D120201F
:1046000084F83D0084F83E00002084F83C0003203C
:10461000BDE8F0812068006836EA000004D0002080
:10462000B842CFD00020F3E70120F9E7FEE7000011
:1046300070B5084C0546E068804760698047E169CD
:10464000284688470546A069804720698047284654
:1046500070BD0000E400002070B5084C06460D4611
:10466000E068804760698047226A29463046904763
:10467000A06980472069BDE870400047E400002041
:104680000FB4054B10B503A9044A029800F03CF89A
:1046900010BC5DF814FB0000655E000818010020E6
:1046A0000FB4084B10B504A902AA039800F02CF827
:1046B000044602A9002000F052FA204610BC5DF822
:1046C00014FB00005F4B00080907090E002804DBFB
:1046D00000F1E02080F80014704700F00F0000F1B6
:1046E000E02080F8141D704702E008C8121F08C1BE
:1046F000002AFAD170477047002001E001C1121F63
:10470000002AFBD1704700002DE9FF4F8DB00F4606
:104710000546002606E025280BD0DDE90F1290475C
:104720006D1C761C28780028F5D111B03046BDE804
:10473000F08F0024A246A1460122E94900E004438B
:1047400015F8013F203B02FA03F00842F7D1287820
:104750002A2810D06FF02F022878A0F13001092903
:1047600014D80AEB8A0102EB410144F0020400EB89
:10477000010A6D1CF0E701CF5FEA000A03D544F49B
:104780000054CAF1000A44F002046D1C28782E2857
:1047900017D115F8010F44F004042A280ED06FF049
:1047A0002F022878A0F1300109290AD809EB8901E4
:1047B00002EB410100EB01096D1CF2E757F8049B85
:1047C0006D1C28786C280FD006DC4C2817D0682880
:1047D0000DD06A2814D104E0742810D07A280FD1A3
:1047E0000DE044F400140AE044F4801401E044F4C1
:1047F00040146978814202D104F580146D1C6D1C4F
:1048000028786E281ED00CDC632830D004DC002809
:104810008BD0582811D19FE0642867D069280CD12B
:1048200064E073282DD004DC6F2872D0702804D186
:1048300094E075286ED078286DD0DDE90F1290478E
:10484000761C4BE1C4F30250022806D0032809D09D
:10485000042801CF09D0066040E101CFF117C0E97B
:1048600000613BE101CF068038E1067036E117F8C0
:10487000040B8DF8000000208DF80100EB460120AC
:1048800003E057F804BB4FF0FF3061074FF0000121
:1048900002D40DE008F10101884649450FDA804550
:1048A000F8DB1BF808100029F4D108E008F1010139
:1048B00088468142FADB1BF808100029F6D1DDE9B1
:1048C0000F23AAEB08008146214600F031F930445D
:1048D00000EB080604E0DDE90F121BF8010B90471E
:1048E000B8F10108F7D221464846F2E00A21C4F3A4
:1048F00002524FF0000B0891022A04D001CFC117D9
:10490000032A09D00AE0FF1D27F00707F7E8020194
:1049100008E02CE01EE01FE000B2C117042A01D11C
:1049200040B2C117021E71F1000206DA0023D0EB7B
:10493000030063EB01012D2202E0220504D52B22A6
:104940008DF82420012203E0E20701D02022F7E7BE
:10495000904653E00A210BE0102109E010214FF0AE
:10496000000B44F004044FF00809089103E008210B
:104970004FF0000B0891C4F30252022A04D001CF79
:104980000021032A06D006E0FF1D27F00707F7E8FD
:10499000020103E080B2042A00D1C0B24FF0000847
:1049A00022072BD52A78702A07D0DDF820C08CF09A
:1049B000100C5CEA0B0C05D00EE040228DF8242090
:1049C000012208E050EA010306D030238DF824309C
:1049D0008DF8252002229046089B83F0080353EAB5
:1049E0000B030BD150EA010201D1620706D5302238
:1049F0008DF824204FF00108A9F101092A78582ADE
:104A000004D038A20B9208AA0A920BE03AA2F9E766
:104A10005B46089AFBF7E8FB0B9B9B5C0A9A521ECD
:104A20000A92137050EA0102F2D10A98ADEB00002D
:104A300000F1200B600702D524F4803401E04FF030
:104A40000109D94502DDA9EB0B0000E0002000EBD5
:104A50000B0141440890AAEB010AE00306D4DDE90A
:104A60000F232146504600F063F806444FF000093A
:104A700008E009A911F80900DDE90F12904709F1D2
:104A80000109761CC145F4DBE0030CD5DDE90F23F9
:104A90002146504600F04CF8064404E0DDE90F12D0
:104AA00030209047761C0899481E08900029F5DCB4
:104AB00008E00A980A990078491C0A91DDE90F126A
:104AC0009047761CBBF10001ABF1010BF1DC2146F4
:104AD0005046DDE90F2300F019F806446D1C21E66D
:104AE00009280100303132333435363738396162C4
:104AF0006364656600000000303132333435363788
:104B00003839414243444546000000002DE9F04158
:104B1000044600251E461746880404D405E039469D
:104B20002020B0476D1C641EF9D52846BDE8F081F1
:104B30002DE9F041044600251E469046C80301D5E4
:104B4000302700E02027880404D505E04146384698
:104B5000B0476D1C641EF9D52846BDE8F0810A688F
:104B6000531C0B60107070477FB524A002210068B1
:104B700003902348FFF710FA40F25B7203A9204824
:104B8000FBF74CFE1F494FF40060CDE90001A1F591
:104B900000631B4902904FF47A7201F11000FEF796
:104BA000F5FB194800210125C1760321017217493F
:104BB000C16017A101641B49C1641E210183857670
:104BC00001460F481030FEF7FFFB0446014616A0D1
:104BD000FFF756FD002C10D10948174B002217A1F2
:104BE0001030FEF78DFF0446014621A0FFF748FD77
:104BF000002C02D10448001F05707FBD6585C46F7D
:104C000050670120505F01206C000020A091000837
:104C1000573533303026613162666A683279514ADD
:104C2000320000005C910008436F6E6E656374652E
:104C3000642025640D0A0000056600082F7379734F
:104C40002F613162666A683279514A322F573533A3
:104C500030302F7468696E672F736572766963658B
:104C60002F70726F70657274792F73657400000015
:104C7000537562736372696265642025640D0A006E
:104C80001FB50A49097801290FD100218DF80010BC
:104C90000290FBF7FEFA03906A4605A11148FEF761
:104CA0001DFD014610A0FFF7EBFC1FBD68000020B2
:104CB0002F7379732F613162666A683279514A3293
:104CC0002F57353330302F7468696E672F657665DE
:104CD0006E742F70726F70657274792F706F737449
:104CE00000000000606701205075626C69736820E5
:104CF00025640D0A000000002DE9F041114C064624
:104D00001F46A06B0161A06B8261A06BFDF7B8F834
:104D10000D4D002028702068C16841F00101C1607C
:104D20003B46324602212046FCF720FA02E00120F1
:104D3000FDF748F928780028F9D0BDE8F04101488E
:104D4000FCF770BAAC010020030000202DE9F0410F
:104D5000074614480B464FF4806604884088F500E7
:104D600044436008A1084FF4804C062B18D2DFE8BA
:104D700003F003040607090A0026002505E00026C3
:104D8000044602E0002665460C4602B190472346E1
:104D90002A4631463846FFF7AFFF0020BDE8F081D4
:104DA0000220FBE72000002030B587B014216846C0
:104DB000FBF764FA3A48016841F0010101600068BC
:104DC000694600F0010005904FF40040009001207A
:104DD00001900290022003903248FDF757F90A2013
:104DE000FDF7F0F80A20FDF7EDF80A20FDF7EAF8E4
:104DF00000F0B2F8012000F06AF88021122000F0E3
:104E000074FC3220FDF7DEF8012000F060F81C2071
:104E100000F04EF804021D2000F04AF82043A0F5EF
:104E2000FE41A2390ED1012000F051F80A2000F015
:104E30003FF804020B2000F03BF82043A0F5185186
:104E4000423902D0012007B030BD174D002400BF09
:104E500005EB4400417815F8140000F046FC641C92
:104E6000B22CF5D3002000F032F85A2000F020F8E0
:104E700005465B2000F01CF804465C2000F018F8A2
:104E800000F0030145EA01218A00084900F004000E
:104E900044EA80100A80800048800020D3E70000A8
:104EA0003038024000000240BC760008200000209C
:104EB00008B500218DF800100146302000F027F8D9
:104EC0006946302000F011F89DF8000008BD10B5CB
:104ED00018B1012803D0022010BD002100E00121FB
:104EE000FF2000F002FC002010BD70B50D46044606
:104EF00000F0C6F8012000EB4400C0B200F0FEF85C
:104F0000284600F05DF8BDE8704000F0D9B870B5F3
:104F10000D46044600F0B4F86006000E00F0EEF80E
:104F2000284600F0EBF8BDE8704000F0C9B870B555
:104F300015460E46044600F0A3F86006000E00F089
:104F4000DDF8304600F0DAF8284600F0D7F8BDE882
:104F5000704000F0B5B8000070B586B01421684606
:104F6000FBF78CF91448016841F002010160016807
:104F700001F002010591016841F002010160006841
:104F8000012400F0020005901020CDE900040B4E32
:104F9000022569463046CDE90245FDF777F808203D
:104FA000CDE9000469463046CDE90245FDF76EF8CB
:104FB00000F086F806B070BD3038024000040240B0
:104FC0002DE9F04186B0074614216846FBF756F9F3
:104FD0004FF0080800200126CDF80080CDE9010639
:104FE000264D69462846FDF751F80724052000F0B4
:104FF0005DFD012210212846FDF767F908212846AA
:10500000FDF75EF93978A04001433970052000F0C2
:105010004DFD002210212846FDF757F9641E64B2A9
:10502000002CE3DA052000F041FD01221021284682
:10503000FDF74BF9052000F039FD0022102128462C
:10504000FDF743F9052000F031FD00220821284634
:10505000FDF73BF9052000F029FD14216846FBF718
:105060000DF90220CDE90260CDE9008669462846A7
:10507000FDF70CF806B0BDE8F08100000004024026
:1050800010B50E4C012208212046FDF71EF9012221
:1050900010212046FDF719F9052000F007FD002238
:1050A00008212046FDF711F9052000F0FFFC2046FD
:1050B0000022BDE810401021FDF707B900040240AE
:1050C00010B50D4C002208212046FDF7FEF8052002
:1050D00000F0ECFC012210212046FDF7F6F8052037
:1050E00000F0E4FC012208212046FDF7EEF8BDE8BF
:1050F0001040052000F0DABC0004024070B51D4EDF
:105100000546072425FA04F010F0010F01D0012212
:1051100000E0002208213046FDF7D7F8052000F016
:10512000C5FC012210213046FDF7CFF8052000F024
:10513000BDFC002210213046FDF7C7F8641E64B2A2
:10514000002CDFDA012208213046FDF7BEF80520E9
:1051500000F0ACFC012210213046FDF7B6F8052026
:1051600000F0A4FC3046BDE8704000221021FDF79D
:10517000ACB800000004024010B5052861D2DFE899
:1051800000F003142D3E4F000020FFF7A0FE002189
:105190007C2000F0AAFA04217D2000F0A6FA092163
:1051A0007C2000F0A2FA40210FE00020FFF78FFEE4
:1051B00000217C2000F099FA04217D2000F095FA6E
:1051C00009217C2000F091FA30217D2000F08DFA39
:1051D00000217D2000F089FA002010BD0020FFF79B
:1051E00076FE00217C2000F080FA04217D2000F072
:1051F0007CFA09217C2000F078FA2021E5E70020E4
:10520000FFF765FE00217C2000F06FFA04217D206D
:1052100000F06BFA09217C2000F067FA1021D4E736
:105220000020FFF754FE00217C2000F05EFA0421EC
:105230007D2000F05AFA09217C2000F056FA002166
:10524000C3E7022010BD10B5052872D2DFE800F0D8
:10525000031831465B000020FFF739FE00217C2057
:1052600000F043FA02217D2000F03FFA03217C2068
:1052700000F03BFA68217D2000F037FA682113E046
:105280000020FFF724FE00217C2000F02EFA0221EE
:105290007D2000F02AFA03217C2000F026FA582114
:1052A0007D2000F022FA58217D2000F01EFA002017
:1052B00010BD0020FFF70BFE00217C2000F015FA46
:1052C00002217D2000F011FA03217C2000F00DFA6C
:1052D00048217D2000F009FA4821E5E70020FFF78A
:1052E000F6FD00217C2000F000FA02217D2000F074
:1052F000FCF903217C2000F0F8F938217D2000F032
:10530000F4F93821D0E70020FFF7E1FD00217C20EF
:1053100000F0EBF902217D2000F0E7F903217C2069
:1053200000F0E3F928217D2000F0DFF92821BBE718
:10533000FFE7022010BD10B5052870D2DFE800F0AD
:10534000031C3D5670000020FFF7C1FD00217C20AA
:1053500000F0CBF904217D2000F0C7F907217C2063
:1053600000F0C3F920217D2000F0BFF928217D2025
:1053700000F0BBF90C2117E00020FFF7A8FD002189
:105380007C2000F0B2F904217D2000F0AEF9072165
:105390007C2000F0AAF920217D2000F0A6F924212C
:1053A0007D2000F0A2F916217D2000F09EF9062153
:1053B0007D2000F09AF9002010BD0020FFF787FD46
:1053C00000217C2000F091F904217D2000F08DF96E
:1053D00007217C2000F089F920217D2000F085F94B
:1053E00020217D2000F081F92021DDE70020FFF75A
:1053F0006EFD00217C2000F078F904217D2000F072
:1054000074F907217C2000F070F920217D2000F044
:105410006CF91C217D2000F068F92A21C4E718E00E
:105420000020FFF754FD00217C2000F05EF90421EC
:105430007D2000F05AF907217C2000F056F9202148
:105440007D2000F052F918217D2000F04EF9342122
:10545000AAE7022010BD10B5052853D2DFE800F0FE
:1054600003091E2F40000020FFF731FD0021C72057
:1054700010E00020FFF72BFD4021C72000F035F998
:105480005E21CC2000F031F94121CD2000F02DF932
:10549000542135E000F029F9002010BD0020FFF76D
:1054A00016FD4021C72000F020F96521CC2000F036
:1054B0001CF94121CD2000F018F94F2120E00020F7
:1054C000FFF705FD4021C72000F00FF95221CC2045
:1054D00000F00BF94121CD2000F007F966210FE023
:1054E0000020FFF7F4FC4021C72000F0FEF8422125
:1054F000CC2000F0FAF83F21CD2000F0F6F8712121
:10550000CE20C7E7022010BD70B518B101280ED01B
:10551000022070BD144D002405EB4400417815F8BD
:10552000140000F0E2F8641C0E2CF5D31AE00E4DC6
:1055300000241E3D05EB4400417815F8140000F0EE
:10554000D4F8641C082CF5D3074D0024B5F10E05E2
:1055500005EB4400417815F8140000F0C6F8641C0F
:10556000072CF5D3002070BD3E78000870B540EAE6
:105570000102920701D0022070BD124A84088D08F2
:10558000108051800020FFF7A2FC0421E02000F0F1
:10559000ACF8E1B25A2000F0A8F8E9B25B2000F0C4
:1055A000A4F8A809C0F38000C4F3012141EA8001F6
:1055B0005C2000F09AF80021E02000F096F800202E
:1055C00070BD00002000002010B5082875D2DFE86B
:1055D00000F004192F4459626B750020FFF777FC27
:1055E00000217C2000F081F818217D2000F07DF85A
:1055F00005217C2000F079F840217D2000F075F82D
:10560000A62110E00020FFF762FC00217C2000F0C2
:105610006CF818217D2000F068F805217C2000F04E
:1056200064F8A02114E07D2000F05FF8002010BD98
:105630000020FFF74CFC00217C2000F056F81821D8
:105640007D2000F052F805217C2000F04EF840212A
:105650007D2000F04AF84021E5E70020FFF737FC05
:1056600000217C2000F041F818217D2000F03DF859
:1056700005217C2000F039F840217D2000F035F82C
:10568000C021D0E70020FFF722FC00217C2000F0A1
:105690002CF818211AE00020FFF719FC00217C20CB
:1056A00000F023F8402111E00020FFF710FC00215A
:1056B0007C2000F01AF8582108E014E00020FFF7E1
:1056C00006FC00217C2000F010F800217D2000F075
:1056D0000CF805217C2000F008F880217D2000F0E6
:1056E00004F880219FE7022010BD0A4601463020C1
:1056F000FFF71DBC70B5002211E0551CEBB20BE0AA
:1057000050F8226050F82340A64203D240F82360AC
:1057100040F822405B1CDBB28B42F1D3EAB28A42F2
:10572000EBD370BD30B5044606480023026803E0A1
:1057300012F8015B25705B1C8B42F9DB02600846A6
:1057400030BD0000140100202DE9FC41044608286A
:1057500003D94FF0FF30BDE8FC81354800EB8410E1
:105760008046FEF765FF00F00F013148801C00EB1A
:105770008415801D00EB8416012930D1204600F0ED
:10578000BBFB0746204600F0D1FBB7EB802F26D0AD
:1057900028A00221006801904046FEF75DFF2448E2
:1057A0004FF440570A3000EB84103946FEF754FF9F
:1057B00028460121FEF750FF2846FEF739FF10F07A
:1057C000FF0FF9D13046FEF733FFC0B22228F9D1DE
:1057D00001AB012219462046009701F0E1F9284665
:1057E0001021FEF739FF2846FEF722FF10F0FF0FC9
:1057F000F9D10F48FF21801D00EB8410FEF72CFF2C
:105800000D490120A0404A8882434A808A88824309
:105810008A800A49002021F814000749891D08558B
:105820003046FEF705FF10F0FF0FF9D1012092E797
:105830000002006800000001C4000020BC670120D5
:105840002DE9F04117460E460446082803D94FF0CB
:10585000FF30BDE8F0813F4800EB8410FEF7E8FE22
:1058600000F00F00012802D06FF00400F1E7394882
:10587000083000EB84100546FEF7DAFEC0B21328AC
:1058800002D06FF00200E4E730787178F27801EB33
:105890000020B17801EB002102EB01214A1C32D03B
:1058A00079B37FB381B22B48143000EB8410FEF73C
:1058B000D3FEF078B17800EB012081B22548163094
:1058C00000EB8410FEF7C8FE22483946123000EB88
:1058D0008410FEF7C1FE1F480421801C00EB8410D9
:1058E0000646FEF7B9FE3046FEF7A2FE10F0FF0FA7
:1058F000F9D119490120A040498808421ED0002052
:10590000A7E700E002E06FF00B00A2E76FF00A00EB
:105910009FE72046FEF78CFE000706D520460821AB
:10592000FEF79AFE6FF00C0093E72846FEF780FE24
:1059300010F0FF0F06D16FF003008AE70548801DC5
:1059400000EB84142846FEF773FEC0B21728E0D19E
:1059500001207EE700020068C4000020F0B58DB091
:105960000C46054600F015FF86B2B01E4FF0FF371B
:105970000C2865D2DFE800F0640664446464646463
:105980006464646208AA6969E8680292CDE9031058
:1059900007AB0AA8CDE9000305A8031D421C09A90D
:1059A000801CFDF7AEFD01284DD109988DF814003B
:1059B00005AA0AA9284600F093F89DF81400E0B360
:1059C000012802D0022808D035E0BDF81800009068
:1059D00000230422A968286906E0BDF81800009099
:1059E00000230522A9682869FDF7D3FE011E22DDE8
:1059F0002246284601F0AAF80446401C24D026E09E
:105A0000E868009001AA02A903A86B69FDF728FDC8
:105A1000012810D1BDF80400009000230622A968D7
:105A20002869FDF7B6FE011E05DD2246284601F075
:105A30008DF804000BD03C4606E001E000202877FA
:105A4000284600F0F7FB34460DB02046F0BD28464E
:105A500000F0F0FB002CF6D0F6E7000010B504468D
:105A60000420FCF7E1FF0148046010BD2400002081
:105A70004FF4077170B5B0FBF1F2B0FBF1F501FB2B
:105A80001204094E03E0304600F010F86D1E002DA0
:105A9000F9D1002C06D04FF47A706043BDE8704015
:105AA00000F004B870BD0000603D080070B54FF014
:105AB000E024002265690949A36909684843A1698E
:105AC0009942FCD002D2A3EB010302E0A5EB010650
:105AD00033441A440B468242F1D370BD24000020A7
